:020000040800F2
:10000000280400205D050008C9010008CB01000894
:10001000CF010008D3010008D7010008000000004C
:10002000000000000000000000000000DB010008EC
:10003000DD01000800000000DF010008E101000808
:1000400077050008770500087705000877050008A0
:100050007705000877050008770500087705000890
:100060007705000877050008770500087705000880
:100070007705000877050008770500087705000870
:100080007705000877050008770500087705000860
:100090007705000877050008770500087705000850
:1000A0007705000877050008770500087705000840
:1000B0007705000877050008770500087705000830
:1000C0007705000877050008770500087705000820
:1000D00077050008E30100087705000877050008A8
:1000E0007705000877050008770500087705000800
:1000F00077050008770500087705000877050008F0
:1001000077050008770500087705000877050008DF
:1001100077050008770500087705000877050008CF
:1001200077050008770500087705000877050008BF
:1001300077050008770500087705000877050008AF
:10014000770500087705000877050008770500089F
:10015000770500087705000877050008770500088F
:10016000770500087705000877050008770500087F
:10017000770500087705000877050008770500086F
:100180007705000877050008DFF80CD001F066FB62
:10019000004800479D0100082804002001F002F9F2
:1001A0004FF4E13000F038F902E002A001F0F6FB74
:1001B000FBE70000796F75207374757069642078AF
:1001C0007565646900000000704700BFFEE700BF6E
:1001D000FEE700BFFEE700BFFEE7704770477047CD
:1001E000704710B540F22551064801F091F838B13A
:1001F000044800F0CBFF04462146024800F0C2FF4D
:1002000010BD0000001001400CB5002001900090CE
:100210007648006840F480307449086000BF734835
:10022000006800F4003000900198401C0190009894
:1002300018B90198B0F5A04FF1D16C48006800F4EE
:10024000003010B10120009001E0002000900098E3
:10025000012846D165484030006840F0805063492D
:10026000403108606248006840F4404060490860DE
:100270005E48083000685D4908310860084600683B
:1002800040F4004008600846006840F4A050086050
:100290005848091F0860081F006840F08070091F57
:1002A000086000BF5148006800F000700028F9D0D5
:1002B00040F20570504908604C480830006820F052
:1002C00003004A49083108600846006840F002000F
:1002D000086000BF45480830006800F00C0008289E
:1002E000F8D10CBD10B54548006840F47000434992
:1002F00008603E48006840F001003C49086000206A
:100300003A4908310860394800683D490840374992
:1003100008603C48091D0860081F006820F4802020
:10032000091F0860002031490C310860FFF76CFF9D
:100330004FF0006031498039086010BD70B5002071
:100340000022022300240221284D08352D6805F0E3
:100350000C0020B1042806D0082834D107E02A4D2B
:100360002A4E356033E02A4D284E35602FE01F4D70
:100370002D1D2D68C5F380541C4D2D1D2D6805F0D5
:100380003F0154B1224DB5FBF1F5184E361D3668CC
:10039000C6F3881605FB06F209E01B4DB5FBF1F527
:1003A000124E361D3668C6F3881605FB06F20F4D51
:1003B0002D1D2D68C5F301456D1C6B00B2FBF3F5D7
:1003C000124E356003E0104D104E356000BF00BF87
:1003D000064D08352D68C5F303150E4E705D0B4DA7
:1003E0002D68C540094E356070BD000000380240E0
:1003F0000070004008544007003C024088ED00E0D7
:10040000FFFFF6FE103000240024F400000000205E
:1004100000127A000400002010B588B004460121C3
:10042000084600F041FC0121102000F097FC072253
:100430000921484800F025FA07220A21454800F022
:1004400020FA4FF4C060069002208DF81C008DF851
:100450001D0000208DF81E0001208DF81F0006A948
:100460003C4800F083F902940020ADF80C00ADF890
:100470000E00ADF81000ADF814000C20ADF812001D
:1004800002A9354800F0CBFD0121334800F04FFEB2
:10049000012240F22551304800F0FFFE25208DF862
:1004A000040002208DF805008DF8060001208DF86B
:1004B000070001A800F069F808B010BD0FB430B50E
:1004C0009BB00546002420A80090652101A8009B50
:1004D0001F9A01F073FA8021284600F010FF0EE009
:1004E00000BF8021284600F0FDFE0028F9D02046FC
:1004F000621CD4B201AA115C284600F043FE642CB1
:1005000003DA01A8005D0028EAD1002000901BB0AA
:1005100030BC5DF814FB70B504460D4600BF802169
:100520000D4800F0DFFE0028F9D0E1B20A4800F0E3
:1005300029FE204670BD70B50546002400BF20216D
:10054000054800F0CFFE0028F9D003488088C4B2E7
:10055000204670BD00000240001001400648804760
:1005600006480047FEE7FEE7FEE7FEE7FEE7FEE798
:10057000FEE7FEE7FEE7FEE7E50200088901000866
:1005800032490143324A1160704770B5002100239F
:100590000F22C4781CB32E4C246804F4E064C4F524
:1005A000E064C4F30721C1F10404E3B20A414478D2
:1005B0009C40E1B28478144021430C07210E254C65
:1005C00005786155047804F01F050124AC400578D6
:1005D0006D11AD0005F1E025C5F8004109E0047892
:1005E00004F01F050124AC401B4D0678761145F838
:1005F000264070BD194A0A400243154B1B1F1A6062
:10060000704739B1124A121D12680243104B1B1D6C
:100610001A6006E00E4A121D126882430C4B1B1D25
:100620001A607047042808D14FF0E021096941F0B1
:1006300004014FF0E022116107E04FF0E021096969
:1006400021F004014FF0E022116170470000FA052B
:100650000CED00E000E400E080E100E080FFFF1F1F
:1006600010B504469848844208D10121084600F09C
:1006700086FB0021012000F082FB76E09348844253
:1006800008D10121022000F07AFB0021022000F0B5
:1006900076FB6AE08E48844208D10121042000F0F4
:1006A0006EFB0021042000F06AFB5EE08948844272
:1006B00008D10121082000F062FB0021082000F091
:1006C0005EFB52E08448844208D10121102000F0F2
:1006D00056FB0021102000F052FB46E07F48844288
:1006E00008D10121202000F04AFB0021202000F049
:1006F00046FB3AE07A48844208D10121402000F0CC
:100700003EFB0021402000F03AFB2EE07548844279
:1007100008D10121802000F032FB0021802000F070
:100720002EFB22E07048844208D10121801500F0A0
:1007300026FB0021A01500F022FB16E06B48844246
:1007400008D10121401500F01AFB0021601500F0CE
:1007500016FB0AE06648844207D10121001500F02B
:100760000EFB0021201500F00AFB10BDF0B50A4673
:1007700000210023002400BF3DE0012505FA01F31C
:10078000156805EA03049C4234D105684F0003262E
:10079000BE40B543056015794E00B5400668354347
:1007A00005601579012D02D01579022D16D18568C5
:1007B0004F000326BE40B543856055794E00B540D5
:1007C000866835438560456801268E40B54345609F
:1007D000456896798E40B6B235434560C5684F008E
:1007E0000326BE40B543C560D5794E00B540C66806
:1007F0003543C560491C1029BFD3F0BD4FF6FF71CA
:1008000001600021017141718171C171704708B5AA
:100810004FF480320092009A0A430092009AC2611B
:10082000C161009AC261C2690092C269009208BDAA
:100830000246002013690B400BB1012000E00020AC
:1008400070470146086980B270470246002053692C
:100850000B400BB1012000E00020704701464869C1
:1008600080B2704701837047418370470AB10183AA
:1008700000E0418370474161704742694A404261EC
:100880007047F0B5002300244D07ED0E02FA05F382
:10089000CE1000F1200555F826504E07F70E0F2612
:1008A000BE40B543CF1000F1200646F82750CE10C9
:1008B00000F1200555F8265045EA0304CE1000F15A
:1008C000200545F82640F0BD00000240000402402B
:1008D00000080240000C02400010024000140240D8
:1008E00000180240001C0240002002400024024088
:1008F00000280240F948006840F00100F74908600C
:100900000020F64908310860F4480068F4490840BE
:10091000F2490860F348091D0860F348EF49843143
:100920000860F0481038091D0860EC48006820F4A1
:100930008020EA4908600020E8490C310860E74956
:100940008C31086070470021E44A921C11701146F6
:100950000870704710B501460022002300204A119C
:10096000012A02D1DD4C236808E0022A03D1DB4CC6
:100970007034236802E0D94C7434236801F01F02FC
:10098000012494401C400CB1012000E0002010BD67
:1009900038B5002000900024002500BF3120FFF76B
:1009A000D9FF05460098401C00900098B0F5A04F74
:1009B00001D0002DF2D03120FFF7CCFF08B1012487
:1009C00000E00024204638BD01460020C34A1068DC
:1009D00020F0F80040EAC10010607047C349086089
:1009E00070470021BD4A703211701170012802D089
:1009F00004280AD104E00121B84A7032117005E0E0
:100A00000521B64A7032117000E000BF00BF704788
:100A1000B7490860704770B5049C41EA8215012609
:100A2000C6EB530645EA0645054345EA0465AB4E69
:100A3000361D356070BDAD4908667047820142EAD7
:100A40000172A64B84331A607047A84988667047C4
:100A500010B5830143EA016343EA02739F4C883473
:100A6000236010BDA14908677047A049C86470475A
:100A700002460020994B0833186820F0EC6042EAE7
:100A800001031843954B0833186070470246002055
:100A9000924B0833186820F0784042EA010318436B
:100AA0008E4B083318607047014600208B4A08328D
:100AB000106820F003000843106070478748083032
:100AC000006800F00C00704701460020834A08329D
:100AD000106820F0F00008431060704701460020C5
:100AE0007E4A0832106820F4E050084310607047D6
:100AF00001460020794A0832106820F4604040EA3C
:100B0000C10010607047F0B50021002200240225CA
:100B100000260223714F08373F6807F00C0121B10E
:100B2000042905D0082937D105E0724F076036E067
:100B3000714F076033E0694F3F1D3F68C7F3805630
:100B4000664F3F1D3F6807F03F036EB16A4FB7FB2A
:100B5000F3F7DFF888C10CF1040CDCF800C0CCF32B
:100B6000881C07FB0CF40CE0624FB7FBF3F7DFF8CF
:100B70006CC10CF1040CDCF800C0CCF3881C07FB42
:100B80000CF4564F3F1D3F68C7F301477F1C7D00A3
:100B9000B4FBF5F7076002E0564F076000BF00BFE7
:100BA0004E4F08373F6807F0F0010909534F7A5C50
:100BB0000768D7404760494F08373F6807F4E0515E
:100BC000890A4E4F7A5C4768D7408760434F0837A1
:100BD0003F6807F46041490B484F7A5C4768D7404B
:100BE000C760F0BD002100F44072B2F5407F0AD129
:100BF0003A4A0832116821F4F811414A024011437F
:100C0000364A08321160354A70321268C0F30B035D
:100C10001A43324B70331A607047354944390860C3
:100C2000704733494039086070473649086070475B
:100C300001460020294A8C32106820F01F004A1E0D
:100C40001043264A8C321060704701460020234A28
:100C50008C32106820F4F8504A1E40EA02201F4AE5
:100C60008C3210607047014600201C4A8C3210689C
:100C700020F4401008431060704701460020174AD6
:100C80008C32106820F44000084310607047014621
:100C90000020124A8C32106820F440300843106063
:100CA000704719490860704739B10C4A30321268F0
:100CB00002430A4B30331A6006E0084A30321268A9
:100CC0008243064B30331A607047F9B1034A34321D
:100CD00012680243014B34331A601CE000380240B2
:100CE000FFFFF6EA103000240030002000004742E9
:100CF000800E47420024F40000127A001400002005
:100D0000FFFCFF0F5C014742E01147428F4A126827
:100D100082438E4B1A60704739B18C4A121D12689B
:100D200002438A4B1B1D1A6006E0884A121D126896
:100D30008243864B1B1D1A60704739B1834A0C32BF
:100D400012680243814B0C331A6006E07F4A0C3272
:100D5000126882437D4B0C331A60704739B17B4A6D
:100D6000103212680243794B10331A6006E0774A5A
:100D7000103212688243754B10331A60704739B1D4
:100D8000724A243A12680243704B243B1A6006E010
:100D90006E4A243A126882436C4B243B1A607047B7
:100DA00039B16A4A203A12680243684B203B1A6004
:100DB00006E0664A203A12688243644B203B1A6080
:100DC000704739B1614A1C3A126802435F4B1C3BC1
:100DD0001A6006E05D4A1C3A126882435B4B1C3B7A
:100DE0001A60704739B1594A143A12680243574B96
:100DF000143B1A6006E0554A143A12688243534B7A
:100E0000143B1A60704739B1504A103A12680243D5
:100E10004E4B103B1A6006E04C4A103A126882436F
:100E20004A4B103B1A60704739B1484A1C3212686D
:100E30000243464B1C331A6006E0444A1C321268D7
:100E40008243424B1C331A60704739B13F4A20320B
:100E5000126802433D4B20331A6006E03B4A2032C1
:100E600012688243394B20331A60704739B1374AD0
:100E7000243212680243354B24331A6006E0334AA9
:100E8000243212688243314B24331A60704739B1DF
:100E90002E4A2C32126802432C4B2C331A6006E087
:100EA0002A4A2C3212688243284B2C331A6070472E
:100EB00039B1264A303212680243244B30331A606B
:100EC00006E0224A303212688243204B30331A60E7
:100ED0007047012808D11D493C31096841F00801DB
:100EE0001A4A3C32116007E018493C31096821F088
:100EF0000801164A3C321160704739B1134A273A4B
:100F000012780243114B273B1A7006E00F4A273A2A
:100F1000127882430D4B273B1A7070470B484030C4
:100F2000006840F080700949403108607047014610
:100F30000020064A283A12680A400AB1012000E05F
:100F40000020704701492639087070473438024044
:100F500010B50446FA48844208D101211020FFF759
:100F600052FF00211020FFF74EFF57E0F548844262
:100F700009D101214804FFF735FF00214FF400306B
:100F8000FFF730FF4AE0F048844209D1012188048C
:100F9000FFF728FF00214FF48020FFF723FF3DE0FB
:100FA000EA48844209D10121C804FFF71BFF002150
:100FB0004FF40020FFF716FF30E0E548844209D1E6
:100FC00001210805FFF70EFF00214FF48010FFF705
:100FD00009FF23E0DF48844208D101212020FFF7E8
:100FE00012FF00212020FFF70EFF17E0DA488442AD
:100FF00009D101218807FFF7F5FE00214FF080405D
:10100000FFF7F0FE0AE0D548844207D101214005F0
:10101000FFF7E8FE00216005FFF7E4FE10BD2DE9B3
:10102000FF4705460E460024A14600BFA046B089F2
:1010300000B100BF2C8A24F44054F08804432C8271
:10104000AC8941F20C608443B088318908437189CE
:1010500008430443AC81AC8A24F44074B08904434F
:10106000AC826846FFF74FFDB548854202D0B948CB
:10107000854202D1DDF80C9001E0DDF80890A889E6
:1010800000F4004040B109EBC90000EB09103168E1
:101090004900B0FBF1F707E009EBC90000EB0910CC
:1010A00031688900B0FBF1F76420B7FBF0F0040170
:1010B0002009642101FB1078A88900F4004040B1A8
:1010C000322000EBC800B0FBF1F000F00700044351
:1010D00008E0322000EB08106421B0FBF1F000F0D2
:1010E0000F0004432C81BDE8FF874FF416510160C7
:1010F00000218180C18001810C21418100218181F9
:10110000704710B502460020108A20F470600B88EA
:101110004C8823438C882343CC8823431843108274
:1011200010BD0021018041808180C180704721B1C4
:10113000828942F40052828104E082894DF6FF7375
:101140001A4082817047028B02F47F420283028B35
:101150000A430283704721B1828942F400428281AE
:1011600003E08289C2F30E028281704721B1828A34
:1011700042F40062828204E0828A4FF2FF731A40D6
:1011800082827047C1F308028280704701468888D6
:10119000C0F308007047028A4FF6F0731A400282CB
:1011A000028A0A430282704721B1828942F0020218
:1011B000828104E082894FF6FD731A408281704774
:1011C00082894FF2FF731A40828182890A438281A9
:1011D0007047028A4FF6DF731A400282028A0A437E
:1011E0000282704721B1028A42F48042028204E006
:1011F000028A4BF6FF731A4002827047818941F0E0
:1012000001018181704721B1828A42F00802828205
:1012100004E0828A4FF6F7731A4082827047028B8D
:10122000D2B20283028B42EA01220283704721B1CB
:10123000828A42F02002828204E0828A4FF6DF73C3
:101240001A408282704721B1828A42F01002828263
:1012500004E0828A4FF6EF731A4082827047828AD6
:101260004FF6FB731A408282828A0A438282704759
:1012700021B1828A42F00202828204E0828A4FF621
:10128000FD731A40828270471AB1838A0B438382AE
:1012900002E0838A8B4383827047F0B503460024C3
:1012A00000260025002040F66A17B94200D100BF91
:1012B0001846C1F3421401F01F06012707FA06F58C
:1012C000012C01D10C3004E0022C01D1103000E0DF
:1012D00014301AB107682F43076002E00768AF4374
:1012E0000760F0BD02460020B1F5007F00D100BFCD
:1012F00013880B400BB1012000E00020704701F47F
:101300000072B2F5007F00D100BFCA43028070476F
:1013100070B50246002400230025002040F66A161E
:10132000B14200D100BFC1F3421501F01F030126F5
:1013300006FA03F3012D13D19689334017E000001C
:10134000001001400044004000480040004C0040B4
:10135000005000400014014000780040007C004034
:10136000022D02D1168A334001E0968A33400C12D6
:10137000012606FA04F41688344013B10CB101209A
:1013800000E0002070BD10B50022002340F66A1472
:10139000A14200D100BF0A1201249440A3B2DC4351
:1013A000048010BD38B56FF00400FFF73BF9274803
:1013B0000068274AB0FBF2F1481EB0F1807F00D3ED
:1013C0001BE0481E4FF0E022506150170F2200280A
:1013D00007DA13071D0E1F4B00F00F04241F1D55C5
:1013E00003E013071C0E1C4B1C5400BF00204FF0E1
:1013F000E02290610720106100BF4FF0E0200069FB
:1014000040F002004FF0E02108610846006940F01A
:1014100001000861FF208DF8000000208DF8010018
:101420008DF8020001208DF803006846FFF7ADF843
:1014300038BD4FF0E0239A6905E04FF0E023996949
:10144000531AC01A0A460028F7D17047000000203E
:1014500040420F0018ED00E000E400E030B50B461C
:10146000014600202022012409E021FA02F59D42D4
:1014700005D303FA02F5491B04FA02F52844151EA8
:10148000A2F10102F1DC30BD2DE9F05F054600203C
:1014900092469B4688460646814640241BE02846E5
:1014A00041464746224600F0FAF953465A46C01ACA
:1014B000914110D311461846224600F0E1F92D1A49
:1014C00067EB01084F4622460120002100F0D8F9C1
:1014D00017EB00094E41201EA4F10104DFDC484651
:1014E00031462A464346BDE8F09F2DE9FE4F80462F
:1014F00081EA0300C00F0C46009021F0004123F068
:101500000045B8EB0200A94105D24046214690466D
:101510001C460B46024623F00040104347D0270DDF
:10152000C7F30A00C3F30A510290401A0190402801
:101530006BDAC3F3130040F4801B0098924620B18D
:101540000023D2EB030A63EB0B0B01985946C0F161
:101550004002504600F094F906460D465046594662
:10156000019A00F0ACF910EB08006141002487EA11
:10157000115284EAE7731A4340D0009A62B3019A89
:10158000012A4FEA075215DC001B61EB02014FF004
:10159000004202EA0752CDE90042001C41F58011E9
:1015A00032462B4600F0ACF903B0BDE8F08F404660
:1015B0002146F9E7001B61EB0201001C41F5801395
:1015C00000185B412018A2F5001747EB030140EA21
:1015D000D570B6196D4111E06D084FEA360645EA3F
:1015E000C0754FEA0752001B61EB0201001C41F578
:1015F000801149084FEA30000019514132462B460C
:1016000003B0BDE8F04F00F06CB900980122400033
:101610000023D0EB020263EBE073009821464FEA0F
:10162000E074B8EB000061EB0401E9E783F00043EC
:101630005BE781F0004158E72DE9FE4F81EA0304A2
:1016400004F0004421F0004100944FF0000B23F01F
:10165000004350EA01045ED052EA03045BD0C3F3B6
:101660000A54C1F30A552C44A4F2F3340194A0FBAC
:101670000254C1F3130141F48011C3F3130343F483
:10168000801301FB024400FB034E840A970A44EADC
:10169000815447EA8357A4FB076802958D0A05FB2E
:1016A00007854FEA932C04FB0C542705029D4FEA53
:1016B000065847EA1637B5EB08056EEB070C870EA0
:1016C000920E47EA811742EA8312A7FB0201B6EBAA
:1016D0000B0164EB00042B0D43EA0C335E1844EB62
:1016E0001C50DA465146E7FB0201C5F313044FEAEA
:1016F0000B3343EA14534FEA0432019C43EA0603D6
:10170000A4F10C040294009CCDE900B400F0F8F8B8
:1017100003B0BDE8F08F00200146F9E72DE9F04D58
:1017200081EA030404F0004B21F0004514464FF019
:10173000000A23F0004150EA050220D054EA0102D9
:101740001DD0C5F30A570246C5F31303C1F31300B6
:10175000C1F30A5640F4801543F48013A7EB060842
:10176000101BD64608F2FD3873EB050002D308F1D2
:10177000010801E092185B41B8F1000F03DA002084
:101780000146BDE8F08D00204FF4801106468446E6
:101790000EE0171B73EB050705D3121B63EB050364
:1017A00006434CEA010C49084FEA300092185B41AD
:1017B00050EA0107EDD152EA030012D082EA040098
:1017C00083EA0501084305D0101BAB4106D2012274
:1017D000002306E000224FF0004302E06FF0010218
:1017E00053101AEB06004CEB085110EB0A0041EBCA
:1017F0000B01BDE8F04D00F074B8C1F30A52C1F31B
:10180000130140F2FF3341F480119A4202DA0020C2
:101810000146704740F233439A42A2F2334202DC5F
:10182000524200F03CB800F02BB8000030B5041E66
:1018300071F1000404DB4FF00044404264EB01010D
:10184000141E73F1000405DB1C464FF000435242A6
:1018500063EB0403994208BF904230BD064C074D2C
:1018600006E0E06840F0010394E807009847103470
:10187000AC42F6D3FEF78CFCA8220008C822000870
:10188000202A04DB203A00FA02F100207047914040
:10189000C2F1200320FA03F3194390407047202A35
:1018A00004DB203A21FA02F00021704721FA02F30A
:1018B000D040C2F120029140084319467047202AC7
:1018C00006DBCB17203A41FA02F043EAE07306E068
:1018D00041FA02F3D040C2F1200291400843194678
:1018E000704710B5141E73F1000408DA401C41F172
:1018F000000192185B411A4301D120F0010010BD94
:101900002DE9F04D92469B4611B1B1FA81F202E009
:10191000B0FA80F220329046FFF7B2FF04460F463D
:1019200040EA0A0041EA0B0153465A46084313D0E5
:10193000114653EA010019D0C8F140025046FFF7A2
:10194000AEFF05460E46504659464246FFF798FF01
:10195000084305D0012004E020463946BDE8F08D5B
:101960000020054346EAE0762C4337430A98630596
:10197000E40AA0EB08000022FD0A44EA47540A30BA
:1019800002D500200146E9E7010510196941DDE9AA
:10199000084500196941BDE8F04DA2E70FB4054BB9
:1019A00010B503A9044A029800F0DCF810BC5DF8F9
:1019B00014FB000017050008240000207CB5491E18
:1019C0001C461546CDE90001044B6A4621462846CF
:1019D00000F0C8F8009A002111707CBD9322000825
:1019E00002E008C8121F08C1002AFAD170477047E8
:1019F000002001E001C1121F002AFBD17047000046
:101A00002DE9FF5FDDE90220010DDDF838B002436A
:101A100018D044F61050A1F2FF3141430D140F9835
:101A2000012820D0A5EB0B00401C5FEA000A4FF014
:101A30000004474EDFF81C91A046504616D5CAF167
:101A4000000728E00F98012443A2012808D00021B4
:101A500000980F9BC0E90021C0E90243BDE8FF9F49
:101A60006FEA0B01F4E7CBF10000DEE7074612E076
:101A7000F80707D02246334640464946FFF7DCFDCB
:101A8000804689462246334610461946FFF7D4FD64
:101A900004460E467F10002FEAD1DDE90201BAF1BB
:101AA000000F42464B4602DAFFF7C6FD01E0FFF7A2
:101AB00035FE04460E460022284BFFF7B7FE03D83A
:101AC0004FF0FF30014607E00022254B204631460B
:101AD000FFF70BFDFFF791FE102409E0002C0ADB55
:101AE0000A220023FFF7D0FC019B30321A55641EF6
:101AF00050EA0102F2D1641C019AC4F111031444AA
:101B00000F9A012A03D0012208430DD10AE00843AD
:101B100004D000204FF0110B0F9080E7A3EB0B05D2
:101B20006D1E0DE05B4504DD4FF0000205F101057F
:101B300004E003DA4FF00002A5F10105002AECD021
:101B400000980F99C0E90231C0E9004586E700001E
:101B5000000024400000F03F300000000000F0438F
:101B60000000E03F2DE9FF4F95B09B4689460646B1
:101B700000250FE2252877D100242746F84A0121C5
:101B8000059400E0044316F8013F203B01FA03F0FE
:101B90001042F7D130782A2811D06FF02F03307817
:101BA000A0F13002092A16D8059A44F0020402EB8B
:101BB000820203EB42021044761C0590EFE759F8CD
:101BC000042B0592002A03DA504244F40054059095
:101BD00044F00204761C30782E2816D116F8010F36
:101BE00044F004042A280DD06FF02F023078A0F1C1
:101BF0003003092B09D807EB870302EB4303C7180F
:101C0000761CF3E759F8047B761C30786C280FD0EB
:101C100006DC4C2817D068280DD06A2814D104E0BF
:101C2000742810D07A280FD10DE044F400140AE093
:101C300044F4801401E044F440147278824202D1EA
:101C400004F58014761C761C307866280BD013DCE3
:101C5000582877D009DC002875D04528F6D04628CA
:101C6000F4D047281AD19DE118E0632835D06428C4
:101C700079D0652812D195E1702873D008DC6728E7
:101C8000F1D069286FD06E280DD06F2806D1B5E04D
:101C900073282CD0752875D0782874D05A46179997
:101CA00090476D1C75E1C4F30250022809D0032847
:101CB0000DD0D9F8001004280DD00D6009F10409E9
:101CC00067E1D9F80010EA17C1E90052F6E7D9F840
:101CD00000100D80F2E70D70F0E719F8041B8DF885
:101CE000001000208DF80100EA46012003E059F8B9
:101CF00004AB4FF0FF3061074FF0000102D40DE05C
:101D000008F101018846B9420FDA8045F8DB1AF87C
:101D100008100029F4D108E008F101018846814249
:101D2000FADB1AF808100029F6D105985B46A0EBFB
:101D3000080721463846179A00F094FA284400EB29
:101D4000080507E04DE029E10DE01AF8010B5A46BD
:101D500017999047B8F10108F7D25B4621463846FB
:101D6000179A13E142E00A220092C4F302524FF0A4
:101D7000000A022A08D059F804CB032A4FEAEC7172
:101D80000AD00DE029E02AE009F1070121F007025D
:101D9000F2E802C1914609E00FFA8CFC4FEAEC71BF
:101DA000042A03D14FFA8CFC4FEAEC71002907DAC0
:101DB0000A460021DCF1000C61EB02012D2202E059
:101DC000220504D52B228DF80420012203E0E2072E
:101DD00001D02022F7E7904659E00A2102E01022C4
:101DE0000DE010214FF0000A00910BE010224FF09F
:101DF000000A44F004040827009203E008224FF090
:101E0000000A0092C4F30252022A05D059F804CB0A
:101E10000021032A08D009E009F1070121F0070297
:101E2000F2E802C1914605E01FFA8CFC042A01D1B8
:101E30000CF0FF0C4FF00008220728D5702806D0C0
:101E4000009B83F0100353EA0A0305D00EE0402202
:101E50008DF80420012208E05CEA010206D030225D
:101E60008DF804208DF8050002229046009B83F037
:101E7000080353EA0A030AD15CEA010201D16207AE
:101E800005D530228DF804204FF001087F1E582818
:101E900004D034A003900EA802900DE036A0F9E71C
:101EA00053466046009AFFF7EFFA84460398825C37
:101EB0000298401E029002705CEA0100F0D1029884
:101EC00006A9081A00F1200A600702D524F480341C
:101ED00000E00127574502DDA7EB0A0000E00020E3
:101EE00000EB0A01009005984144401A0590E00378
:101EF00006D45B462146179A059800F0B3F90544CD
:101F0000002706E001A85A46C05D179990476D1C4E
:101F10007F1C4745F6DBE0030CD55B462146179A4C
:101F2000059800F09FF9054404E030205A461799BF
:101F300090476D1C0099481E00900029F5DC08E0D0
:101F4000029802995A460078491C029117999047C5
:101F50006D1CBAF10001AAF1010AF1DC65E1000093
:101F6000092801003031323334353637383961626F
:101F70006364656600000000303132333435363733
:101F800038394142434445460000000000F058F90A
:101F90000544761C307800287FF4ECAD19B0284653
:101FA000BDE8F08F620700D4062709F1070222F08E
:101FB000070CFCE80223E14603F000485FEA080C46
:101FC00002D00FF2702C0DE05FEA045C02D50FF234
:101FD000682C07E05FEAC47C02D00FF2602C01E0BD
:101FE000AFF2700C4FF0FF3823F00043CDF850C033
:101FF00065280CD006DC452809D046281DD0472886
:102000003DD13DE0662818D067287ED138E0002118
:10201000112F01DB112000E0781CCDE9000106A999
:102020000EA8FFF7EDFCDDE90F010E9A03910021E8
:10203000009207F1010A04914DE04FF00040009733
:10204000CDE9011006A90EA8FFF7DAFCDDE90F02C1
:1020500003920E9B11990022DDF80CA000930492CC
:1020600011B9791C00EB010AB7EB0A0004D4C0F1E6
:10207000FF3007F1010A0490AAEB0700019044E049
:10208000012F00DA01270021112F01DD112000E0CE
:102090003846CDE9000106A90EA8FFF7B1FCDDE93D
:1020A0000F010E9A0391002104910092BA46210774
:1020B0000CD40399514500DA8A46BAF1010F05DDC7
:1020C000009AAAF10101515C302908D0B84202DA25
:1020D00010F1040F06DA0121CDE9011015E0AAF193
:1020E0000101E9E7002805DC049901440491AAEB09
:1020F000000102E0411C514500DD8A460499401A66
:10210000401C01904FF000400290200704D4019839
:10211000504501DBCDF8048000208DF84F00029877
:102120000DF14F07B0F1004F25D02B200E900298F3
:102130004FF0020800280CDA404202902D200E9049
:1021400007E00A210298FFF789F93031029007F879
:10215000011DB8F10001A8F10108F2DC0298002885
:10216000EFD1791E0E980870307800F0200040F012
:10217000450007F8020D12A8C01B00F107081498CB
:10218000007800B1012000EB0A01019801EBE07139
:1021900005984144401A401E0590E00306D45B4672
:1021A0002146179A059800F05DF8054414980078C8
:1021B00018B15A46179990476D1CE00324D55B4629
:1021C0002146179A059800F04DF805441CE0049844
:1021D000002807DBDDE90301884203DD0098405C4D
:1021E000179901E0179930205A469047049805F155
:1021F0000105401C04900198401E019004D12E203E
:102200005A46179990476D1CBAF10001AAF1010ACC
:10221000DDDC05E017F8010B5A46179990476D1C55
:10222000B8F10001A8F10108F4DC5B462146179AD9
:102230000598ABE62D0000002B00000020000000F8
:102240002DE9F041044600251E461746880404D4B3
:1022500005E039462020B0476D1C641EF9D528469C
:10226000BDE8F0812DE9F041044600251E46904668
:10227000C80301D5302700E02027880404D505E0F5
:1022800041463846B0476D1C641EF9D52846BDE866
:10229000F0814A68002A06D00A68531C0B6010704F
:1022A0004868401E48607047C822000800000020AF
:1022B00028000000E0190008F02200082800002093
:1022C00000040000F0190008007A030A0000000072
:1022D00000000000010203040607080900000000D6
:1022E00001020304010203040607080900000000BC
:040000050800018965
:00000001FF
