:020000040800F2
:100000008806002035050008E5020008E702000820
:10001000EB020008EF020008F302000800000000F5
:10002000000000000000000000000000F7020008CF
:10003000F902000800000000FB020008FD020008B1
:100040004F0500084F0500084F0500084F05000840
:100050004F0500084F0500084F0500084F05000830
:100060004F0500084F0500084F0500084F05000820
:100070004F0500084F0500084F0500084F05000810
:100080004F0500084F0500084F0500084F05000800
:100090004F0500084F0500084F0500084F050008F0
:1000A0004F0500084F0500084F0500084F050008E0
:1000B0004F0500084F0500084F0500084F050008D0
:1000C0004F0500084F0500084F0500084F050008C0
:1000D0004F050008FF0200084F0500084F05000803
:1000E0004F0500084F0500084F0500084F050008A0
:1000F0004F0500084F0500084F0500084F05000890
:100100004F0500084F0500084F0500084F0500087F
:100110004F0500084F0500084F0500084F0500086F
:100120004F0500084F0500084F0500084F0500085F
:100130004F0500084F0500084F0500084F0500084F
:100140004F0500084F0500084F0500084F0500083F
:100150004F0500084F0500084F0500084F0500082F
:100160004F0500084F0500084F0500084F0500081F
:100170004F0500084F0500084F0500084F0500080F
:100180004F0500084F05000800F002F800F092F853
:100190000AA090E8000C82448344AAF10107DA45E2
:1001A00001D100F087F8AFF2090EBAE80F0013F0A2
:1001B000010F18BFFB1A43F001031847802E0000FF
:1001C000A02E0000103A24BF78C878C1FAD8520790
:1001D00024BF30C830C144BF04680C6070470000C1
:1001E0000023002400250026103A28BF78C1FBD840
:1001F000520728BF30C148BF0B6070476E2901F01D
:10020000CB82702901F01584662902F09486652955
:1002100002F09186672902F08E86612902F08D86B0
:1002200003681B0A28BF41F08001692901F0788228
:10023000642901F07582752901F072826F2901F03D
:10024000A383782901F0E183E92901F03D83E429C2
:1002500001F03A83F52901F03783EF2901F0A083FB
:10026000F82901F0E0830368DB0928BF41F0800131
:10027000632902F0E180732902F0E680E32902F0AD
:10028000F180F32902F0F680002070471FB502F0DC
:100290004DFE02F041F904000020002102F030FE82
:1002A000401C60600020002102F014FEE0601FBDD1
:1002B00010B510BD02F002F91146FFF7E7FF00F09C
:1002C00008F802F0DBF903B4FFF7F2FF03BC02F019
:1002D0001FFA01F057F94FF4E13001F05DF800BF6B
:1002E000FEE70000704700BFFEE700BFFEE700BF6B
:1002F000FEE700BFFEE7704770477047704710B5D4
:1003000040F22551064800F0FDFF38B1044800F0E6
:1003100037FF04462146024800F02EFF10BD0000C2
:10032000001001400CB50020019000907648006854
:1003300040F480307449086000BF7348006800F4DE
:10034000003000900198401C0190009818B9019865
:10035000B0F5A04FF1D16C48006800F4003010B146
:100360000120009001E0002000900098012846D173
:1003700065484030006840F0805063494031086073
:100380006248006840F44040604908605E480830B8
:1003900000685D49083108600846006840F4004084
:1003A00008600846006840F4A05008605848091FDB
:1003B0000860081F006840F08070091F086000BFD7
:1003C0005148006800F000700028F9D040F2057034
:1003D000504908604C480830006820F003004A4942
:1003E000083108600846006840F00200086000BF5D
:1003F00045480830006800F00C000828F8D10CBD12
:1004000010B54548006840F47000434908603E4814
:10041000006840F001003C49086000203A4908317A
:100420000860394800683D490840374908603C4841
:10043000091D0860081F006820F48020091F08605B
:10044000002031490C310860FFF76CFF4FF000606D
:1004500031498039086010BD70B5002000220223A8
:1004600000240221284D08352D6805F00C0020B12C
:10047000042806D0082834D107E02A4D2A4E3560DA
:1004800033E02A4D284E35602FE01F4D2D1D2D687D
:10049000C5F380541C4D2D1D2D6805F03F0154B14E
:1004A000224DB5FBF1F5184E361D3668C6F3881699
:1004B00005FB06F209E01B4DB5FBF1F5124E361DAA
:1004C0003668C6F3881605FB06F20F4D2D1D2D6804
:1004D000C5F301456D1C6B00B2FBF3F5124E3560A0
:1004E00003E0104D104E356000BF00BF064D0835CB
:1004F0002D68C5F303150E4E705D0B4D2D68C5407C
:10050000094E356070BD00000038024000700040A8
:1005100008544007003C024088ED00E0FFFFF6FE73
:10052000103000240024F4000000002000127A00A3
:10053000040000200948804709480047FEE7FEE71D
:10054000FEE7FEE7FEE7FEE7FEE7FEE7FEE7FEE783
:1005500004480549054A064B70470000010400089D
:1005600089010008880000208806002088020020F9
:100570008802002032490143324A1160704770B549
:10058000002100230F22C4781CB32E4C246804F4ED
:10059000E064C4F5E064C4F30721C1F10404E3B2EC
:1005A0000A4144789C40E1B28478144021430C070E
:1005B000210E254C05786155047804F01F050124AF
:1005C000AC4005786D11AD0005F1E025C5F800419E
:1005D00009E0047804F01F050124AC401B4D0678A7
:1005E000761145F8264070BD194A0A400243154B62
:1005F0001B1F1A60704739B1124A121D126802435C
:10060000104B1B1D1A6006E00E4A121D1268824331
:100610000C4B1B1D1A607047042808D14FF0E021D5
:10062000096941F004014FF0E022116107E04FF049
:10063000E021096921F004014FF0E02211617047C7
:100640000000FA050CED00E000E400E080E100E0CD
:1006500080FFFF1F10B504469848844208D101214D
:10066000084600F086FB0021012000F082FB76E0C6
:100670009348844208D10121022000F07AFB002136
:10068000022000F076FB6AE08E48844208D1012106
:10069000042000F06EFB0021042000F06AFB5EE005
:1006A0008948844208D10121082000F062FB002122
:1006B000082000F05EFB52E08448844208D101210A
:1006C000102000F056FB0021102000F052FB46E005
:1006D0007F48844208D10121202000F04AFB0021FC
:1006E000202000F046FB3AE07A48844208D10121FC
:1006F000402000F03EFB0021402000F03AFB2EE0BD
:100700007548844208D10121802000F032FB00218D
:10071000802000F02EFB22E07048844208D10121A5
:10072000801500F026FB0021A01500F022FB16E04A
:100730006B48844208D10121401500F01AFB0021CA
:10074000601500F016FB0AE06648844207D10121DB
:10075000001500F00EFB0021201500F00AFB10BD73
:10076000F0B50A4600210023002400BF3DE001252A
:1007700005FA01F3156805EA03049C4234D10568C3
:100780004F000326BE40B543056015794E00B540C5
:100790000668354305601579012D02D01579022DC3
:1007A00016D185684F000326BE40B5438560557954
:1007B0004E00B540866835438560456801268E4009
:1007C000B5434560456896798E40B6B2354345607D
:1007D000C5684F000326BE40B543C560D5794E00BD
:1007E000B540C6683543C560491C1029BFD3F0BD6C
:1007F0004FF6FF7101600021017141718171C1717A
:10080000704708B54FF480320092009A0A43009274
:10081000009AC261C161009AC261C2690092C26954
:10082000009208BD0246002013690B400BB1012065
:1008300000E0002070470146086980B27047024618
:10084000002053690B400BB1012000E000207047ED
:100850000146486980B27047018370474183704701
:100860000AB1018300E041837047416170474269EA
:100870004A4042617047F0B5002300244D07ED0E59
:1008800002FA05F3CE1000F1200555F826504E0768
:10089000F70E0F26BE40B543CF1000F1200646F8F4
:1008A0002750CE1000F1200555F8265045EA0304E4
:1008B000CE1000F1200545F82640F0BD00000240B2
:1008C0000004024000080240000C024000100240F8
:1008D0000014024000180240001C024000200240A8
:1008E0000024024000280240F948006840F001005E
:1008F000F74908600020F64908310860F4480068AC
:10090000F4490840F2490860F348091D0860F348BB
:10091000EF4984310860F0481038091D0860EC4840
:10092000006820F48020EA4908600020E8490C3182
:100930000860E7498C31086070470021E44A921C46
:10094000117011460870704710B50146002200234F
:1009500000204A11012A02D1DD4C236808E0022A56
:1009600003D1DB4C7034236802E0D94C7434236823
:1009700001F01F02012494401C400CB1012000E052
:10098000002010BD38B5002000900024002500BFD5
:100990003120FFF7D9FF05460098401C00900098D1
:1009A000B0F5A04F01D0002DF2D03120FFF7CCFFE1
:1009B00008B1012400E00024204638BD0146002093
:1009C000C34A106820F0F80040EAC1001060704788
:1009D000C349086070470021BD4A70321170117020
:1009E000012802D004280AD104E00121B84A70325B
:1009F000117005E00521B64A7032117000E000BFA9
:100A000000BF7047B7490860704770B5049C41EA61
:100A100082150126C6EB530645EA0645054345EA1D
:100A20000465AB4E361D356070BDAD490866704734
:100A3000820142EA0172A64B84331A607047A849CA
:100A40008866704710B5830143EA016343EA027385
:100A50009F4C8834236010BDA14908677047A049A6
:100A6000C864704702460020994B0833186820F08C
:100A7000EC6042EA01031843954B08331860704755
:100A800002460020924B0833186820F0784042EA72
:100A9000010318438E4B083318607047014600204D
:100AA0008B4A0832106820F003000843106070473A
:100AB00087480830006800F00C00704701460020AD
:100AC000834A0832106820F0F00008431060704735
:100AD000014600207E4A0832106820F4E0500843A6
:100AE0001060704701460020794A0832106820F4EF
:100AF000604040EAC10010607047F0B5002100225C
:100B00000024022500260223714F08373F6807F0B2
:100B10000C0121B1042905D0082937D105E0724F15
:100B2000076036E0714F076033E0694F3F1D3F6853
:100B3000C7F38056664F3F1D3F6807F03F036EB115
:100B40006A4FB7FBF3F7DFF888C10CF1040CDCF84F
:100B500000C0CCF3881C07FB0CF40CE0624FB7FB21
:100B6000F3F7DFF86CC10CF1040CDCF800C0CCF337
:100B7000881C07FB0CF4564F3F1D3F68C7F3014725
:100B80007F1C7D00B4FBF5F7076002E0564F07605D
:100B900000BF00BF4E4F08373F6807F0F00109095A
:100BA000534F7A5C0768D7404760494F08373F6822
:100BB00007F4E051890A4E4F7A5C4768D740876056
:100BC000434F08373F6807F46041490B484F7A5C50
:100BD0004768D740C760F0BD002100F44072B2F50D
:100BE000407F0AD13A4A0832116821F4F811414A8B
:100BF00002401143364A08321160354A7032126899
:100C0000C0F30B031A43324B70331A6070473549F7
:100C100044390860704733494039086070473649A5
:100C20000860704701460020294A8C32106820F085
:100C30001F004A1E1043264A8C321060704701463E
:100C40000020234A8C32106820F4F8504A1E40EAF3
:100C500002201F4A8C3210607047014600201C4A57
:100C60008C32106820F44010084310607047014631
:100C70000020174A8C32106820F4400008431060AE
:100C8000704701460020124A8C32106820F4403030
:100C900008431060704719490860704739B10C4A21
:100CA0003032126802430A4B30331A6006E0084AB9
:100CB000303212688243064B30331A607047F9B104
:100CC000034A343212680243014B34331A601CE089
:100CD00000380240FFFFF6EA103000240030002008
:100CE00000004742800E47420024F40000127A00C0
:100CF00014000020FFFCFF0F5C014742E011474257
:100D00008F4A126882438E4B1A60704739B18C4A01
:100D1000121D126802438A4B1B1D1A6006E0884AA6
:100D2000121D12688243864B1B1D1A60704739B131
:100D3000834A0C3212680243814B0C331A6006E07E
:100D40007F4A0C32126882437D4B0C331A60704725
:100D500039B17B4A103212680243794B10331A6062
:100D600006E0774A103212688243754B10331A60DE
:100D7000704739B1724A243A12680243704B243BDF
:100D80001A6006E06E4A243A126882436C4B243B98
:100D90001A60704739B16A4A203A12680243684BB8
:100DA000203B1A6006E0664A203A12688243644B90
:100DB000203B1A60704739B1614A1C3A12680243FD
:100DC0005F4B1C3B1A6006E05D4A1C3A1268824386
:100DD0005B4B1C3B1A60704739B1594A143A126890
:100DE0000243574B143B1A6006E0554A143A126806
:100DF0008243534B143B1A60704739B1504A103A42
:100E0000126802434E4B103B1A6006E04C4A103AFF
:100E1000126882434A4B103B1A60704739B1484A06
:100E20001C3212680243464B1C331A6006E0444AE7
:100E30001C3212688243424B1C331A60704739B12E
:100E40003F4A2032126802433D4B20331A6006E0CD
:100E50003B4A203212688243394B20331A60704774
:100E600039B1374A243212680243354B24331A60B1
:100E700006E0334A243212688243314B24331A602D
:100E8000704739B12E4A2C32126802432C4B2C3356
:100E90001A6006E02A4A2C3212688243284B2C330F
:100EA0001A60704739B1264A303212680243244B27
:100EB00030331A6006E0224A303212688243204BF7
:100EC00030331A607047012808D11D493C31096848
:100ED00041F008011A4A3C32116007E018493C31E0
:100EE000096821F00801164A3C321160704739B197
:100EF000134A273A12780243114B273B1A7006E037
:100F00000F4A273A127882430D4B273B1A707047DD
:100F10000B484030006840F080700949403108605B
:100F2000704701460020064A283A12680A400AB172
:100F3000012000E000207047014926390870704701
:100F40003438024010B50446FA48844208D10121E1
:100F50001020FFF752FF00211020FFF74EFF57E04F
:100F6000F548844209D101214804FFF735FF0021EB
:100F70004FF40030FFF730FF4AE0F048844209D1D7
:100F800001218804FFF728FF00214FF48020FFF79C
:100F900023FF3DE0EA48844209D10121C804FFF75C
:100FA0001BFF00214FF40020FFF716FF30E0E5485B
:100FB000844209D101210805FFF70EFF00214FF4FB
:100FC0008010FFF709FF23E0DF48844208D10121A8
:100FD0002020FFF712FF00212020FFF70EFF17E06F
:100FE000DA48844209D101218807FFF7F5FE002184
:100FF0004FF08040FFF7F0FE0AE0D548844207D169
:1010000001214005FFF7E8FE00216005FFF7E4FE3F
:1010100010BD2DE9FF4705460E460024A14600BF3E
:10102000A046B08900B100BF2C8A24F44054F08857
:1010300004432C82AC8941F20C608443B08831892E
:101040000843718908430443AC81AC8A24F440749A
:10105000B0890443AC826846FFF74FFDB54885422E
:1010600002D0B948854202D1DDF80C9001E0DDF8EC
:101070000890A88900F4004040B109EBC90000EBDA
:10108000091031684900B0FBF1F707E009EBC9002E
:1010900000EB091031688900B0FBF1F76420B7FB61
:1010A000F0F004012009642101FB1078A88900F404
:1010B000004040B1322000EBC800B0FBF1F000F07E
:1010C0000700044308E0322000EB08106421B0FB65
:1010D000F1F000F00F0004432C81BDE8FF874FF4CE
:1010E0001651016000218180C18001810C21418164
:1010F00000218181704710B502460020108A20F43B
:1011000070600B884C8823438C882343CC8823430E
:101110001843108210BD0021018041808180C18070
:10112000704721B1828942F40052828104E08289B1
:101130004DF6FF731A4082817047028B02F47F42A2
:101140000283028B0A430283704721B1828942F4F1
:101150000042828103E08289C2F30E0282817047DD
:1011600021B1828A42F40062828204E0828A4FF2D4
:10117000FF731A4082827047C1F308028280704771
:1011800001468888C0F308007047028A4FF6F07362
:101190001A400282028A0A430282704721B1828980
:1011A00042F00202828104E082894FF6FD731A4008
:1011B0008281704782894FF2FF731A40828182894F
:1011C0000A4382817047028A4FF6DF731A40028217
:1011D000028A0A430282704721B1028A42F48042A5
:1011E000028204E0028A4BF6FF731A4002827047C3
:1011F000818941F001018181704721B1828A42F0E9
:101200000802828204E0828A4FF6F7731A408282D3
:101210007047028BD2B20283028B42EA0122028320
:10122000704721B1828A42F02002828204E0828AE1
:101230004FF6DF731A408282704721B1828A42F0F2
:101240001002828204E0828A4FF6EF731A40828293
:101250007047828A4FF6FB731A408282828A0A4361
:101260008282704721B1828A42F00202828204E0C7
:10127000828A4FF6FD731A40828270471AB1838AC0
:101280000B43838202E0838A8B4383827047F0B5ED
:101290000346002400260025002040F66A17B942C4
:1012A00000D100BF1846C1F3421401F01F06012708
:1012B00007FA06F5012C01D10C3004E0022C01D113
:1012C000103000E014301AB107682F43076002E0C5
:1012D0000768AF430760F0BD02460020B1F5007F0C
:1012E00000D100BF13880B400BB1012000E00020AB
:1012F000704701F40072B2F5007F00D100BFCA430D
:101300000280704770B502460024002300250020AB
:1013100040F66A16B14200D100BFC1F3421501F098
:101320001F03012606FA03F3012D13D196893340DA
:1013300017E0000000100140004400400048004059
:10134000004C004000500040001401400078004074
:10135000007C0040022D02D1168A334001E0968ABB
:1013600033400C12012606FA04F41688344013B1F7
:101370000CB1012000E0002070BD10B50022002358
:1013800040F66A14A14200D100BF0A120124944021
:10139000A3B2DC43048010BD10B588B0044601211F
:1013A0000846FFF77BFC01211020FFF7D1FC072244
:1013B00009217148FFF75FFA07220A216E48FFF7FB
:1013C0005AFA4FF4C060069002208DF81C008DF888
:1013D0001D0000208DF81E0001208DF81F0006A9B9
:1013E0006548FFF7BDF902940020ADF80C00ADF898
:1013F0000E00ADF81000ADF814000C20ADF812008E
:1014000002A95E48FFF705FE01215C48FFF789FE4F
:10141000012240F225515948FFF739FF25208DF868
:10142000040002208DF805008DF8060001208DF8DB
:10143000070001A8FFF7A3F808B010BD10B588B0E9
:10144000044601210846FFF729FC01214804FFF763
:101450006EFC072202214848FFF70DFA07220321FC
:101460004548FFF708FA0C20069002208DF81C0072
:101470008DF81D0000208DF81E0001208DF81F0042
:1014800006A93D48FFF76CF902940020ADF80C0066
:10149000ADF80E00ADF81000ADF814000C20ADF85A
:1014A000120002A93648FFF7B4FD01213448FFF7C6
:1014B00038FE012240F225513148FFF7E8FE262090
:1014C0008DF8040002208DF805008DF8060001203B
:1014D0008DF8070001A8FFF752F808B010BD0FB44F
:1014E00030B59BB00546002420A80090652101A8D6
:1014F000009B1F9A00F094F880212846FFF7F9FE20
:101500000EE000BF80212846FFF7E6FE0028F9D054
:101510002046621CD4B201AA115C2846FFF72CFEBB
:10152000642C03DA01A8005D0028EAD100200090B5
:101530001BB030BC5DF814FB70B504460D4600BF0F
:1015400080210E48FFF7C8FE0028F9D0E1B20B4811
:10155000FFF712FE204670BD70B50546002400BF9F
:1015600020210648FFF7B8FE0028F9D003488088FC
:10157000C4B2204670BD00000000024000100140CF
:101580000044004038B56FF00400FFF745F82148EB
:1015900000684FF47A72B0FBF2F1481EB0F1807F20
:1015A00000D31BE0481E4FF0E022506150170F227D
:1015B000002807DA13071D0E174B00F00F04241F35
:1015C0001D5503E013071C0E144B1C5400BF0020D4
:1015D0004FF0E02290610720106100BF4FF0E02043
:1015E000006940F002004FF0E02108610846006900
:1015F00040F001000861FF208DF8000000208DF808
:1016000001008DF8020001208DF803006846FEF706
:10161000B6FF38BD0000002018ED00E000E400E057
:101620007CB51D4616460C00009001D02044401E9B
:10163000074B7B442A4669460190304600F0C5F8C6
:1016400005461CB10020694600F0D2F828467CBD52
:10165000C501000070477047704770B50446856942
:101660000068C10601D5302600E02026C00707D05B
:1016700070BDD4E9012130469047206A401C2062A9
:101680006D1EF6D570BD70B5044685690078C0073B
:1016900007D170BDD4E9012120209047206A401C69
:1016A00020626D1EF6D570BD09684A0501D540B2AD
:1016B0007047C905FCD500B2704709684A0501D5D5
:1016C000C0B27047C905FCD580B2704770B50C46F2
:1016D0000546012A05D02878800600D5EA6900234E
:1016E00002E0012305E05B1C934202D2E05C00288B
:1016F000F9D1A869E618C01AA861286A18442862B6
:101700002846FFF7AAFF04E0D5E9012114F8010BF0
:101710009047B442F8D32846FFF7B5FF70BD0000EC
:101720002DE9F0410646002410687529314616A5BA
:1017300010D0FFF7B9FF002802DA404213A507E0F6
:1017400031688A0701D512A502E0490704D511A521
:10175000012401E0FFF7B1FF00210A2206F124076E
:1017600009E0B0FBF2FCB0FBF2F302FB1C003030EE
:1017700078541846491C0028F3D123462A4630469F
:10178000BDE8F04100F069BA000000002D00000043
:101790002B0000002000000011680268006A530559
:1017A00001D508700AE0D30501D5088006E01306CC
:1017B00003D5C217C1E9000200E0086001207047AC
:1017C00001694A1C02610878704700B58FB0CDE905
:1017D00001310021059105497944CDE903101146F5
:1017E000684600F031F90FB000BD0000E5FFFFFFD3
:1017F0000A6802F8010B0A607047D1E900239A4297
:1018000002D2531C0B601070704700002DE9FF5F7F
:1018100015468A460446DFF8AC80F8440027D8E92C
:1018200000103E46CDE9001010E03AF816106A4666
:1018300002A800F023FE411C07D02178890603D5B9
:10184000E269391891420DD80744761C2078800649
:1018500002D5E069B84205DDAE42E6DB3AF8160093
:101860000028E2D1A069C01BA0612046FFF7F5FE69
:10187000D8E90010CDE90010002017E03AF8181060
:101880006A4602A800F0FAFDB0F1FF3F81460BD096
:1018900000250DF1080B05E0D4E901211BF8050036
:1018A00090476D1C4D45F7D308F10100B0428046CA
:1018B000E4DB206A384420622046FFF7E4FEBDE8FE
:1018C000FF9F0000221700002DE9F0418046D21D45
:1018D00022F007020025D2E90002F52915A614D04E
:1018E000011E72F1000106DA0023D0EB030063EB66
:1018F000020211A608E0D8F800108B0701D50FA648
:1019000002E0490701D50EA601251146002408F181
:10191000240704E000F05CF930323A55641C50EAC8
:101920000102F7D12B46324621464046BDE8F04140
:1019300000F093B9000000002D0000002B00000013
:101940002000000030B4002100F1240408E002F07F
:101950000705D208303542EA4372DB086554491C5A
:1019600052EA0305F3D10468002310A2250708D525
:1019700004F020040C4304D0C46901230CA2641EAB
:10198000C46130BC00F069B910B504462146106846
:10199000FFF793FE02462046BDE810400023D1E742
:1019A000D21D22F00701D1E90023CBE7000000009F
:1019B00030000000F0B40D460188090502D5214C25
:1019C0007C4402E01F4C7C440E34002100F12406CC
:1019D00008E002F00F071209E75D42EA03721B09F3
:1019E0007754491C52EA0307F3D102780023120707
:1019F00004D5702D06D009B1022311342246F0BC63
:101A000000F02BB901231034F8E770B504460D46F9
:101A100021461068FFF751FE024629462046BDE8E0
:101A200070400023C6E7D21D22F00703D3E900234C
:101A3000C0E70368126843F0200303600823C36112
:101A40000023B7E7841500002DE9F05F89460446BE
:101A50004FF0000ADFF874B1FB44C0F820A0204624
:101A6000E1688847002874D0252806D0D4E90121F0
:101A70009047206A401C2062F1E700265F4620461E
:101A8000E16888472028054607DB312D05D2781903
:101A900010F8200C08B10643F1E7B00701D526F095
:101AA0000406C4F81CA00027C4F818A02A2D09D0E9
:101AB000284601F007FA38B304EB8708303DC8F830
:101AC000185019E059F8041B204604EB8702916175
:101AD000E1688847012F054618D1E069002820DA1F
:101AE00026F020061DE0D8F8180000EB800005EB7A
:101AF00040003038C8F818002046E168884705469D
:101B000001F0E0F90028EED1012F0AD02E2D08D1E6
:101B10002046E16888477F1C0546022F46F02006D4
:101B2000C4DBA069002803DA404246F00106A06148
:101B3000F00701D026F010066C2D0BD0682D09D0CF
:101B40004C2D39D06A2D35D0742D35D07A2D33D027
:101B500016E038E0E1682F4620468847B84205463F
:101B600009D16C2F26D04FF48060E16806432046EF
:101B70008847054604E06C2F1AD04FF48070064366
:101B80000DB3A5F14100192802D8203546F40066AE
:101B90004A462946204626604E46FEF72FFB80B176
:101BA00001280BD0F61D26F0070000F1080956E7C2
:101BB0004020E4E78020D8E70020D6E706F10409BA
:101BC0004DE7284652E7206ABDE8F09F1415000053
:101BD00030B5B0F10A024FEA900E71F100034EEAFF
:101BE000817EB0EB0E0061EB91014FEA101E4EEAD0
:101BF000017E10EB0E0041EB11114FEA102E4EEA60
:101C0000016E10EB0E0041EB11214FEA104E4EEA2F
:101C1000014E10EB0E0041EB1141401841F1000163
:101C20004FEAD00040EA41704FEAD10110EB800545
:101C30004FEA810444EA907444EB01046D1944EBCB
:101C40000404521BA3414FF0000348BF0A3200D5E1
:101C500030BD401C41F1000130BD2DE9F0470D467B
:101C600099469246044600F124080168880604D586
:101C7000E06921F01001216000E00120A84201DDAF
:101C8000471B00E00027A1697A1902EB0900081A36
:101C9000A0612078C00602D42046FFF7DEFC0026B3
:101CA00008E0D4E901211AF806009047206A401C98
:101CB000761C20624E45F4DB2078C0060AD520460B
:101CC000FFF7CBFC06E0D4E9012130209047206AE1
:101CD000401C2062381EA7F10107F4DC07E0D4E9BC
:101CE000012118F805009047206A401C2062281E38
:101CF000A5F10105F3DC2046FFF7C5FC20780006BE
:101D000002D50220BDE8F0870120FBE770472DE9EE
:101D1000FF4F0C461E464FF0FF378BB0D2E9000153
:101D2000DDF860800A908A46C1F30A5505B93D4640
:101D3000002108464FF00000BAF1000F00F4400007
:101D400005DA00EB80004FF4400101EA50004FEA51
:101D50009059B9F1010F00DDB9460A9850EA4A00DE
:101D60000ED044F61050A5F2FF3545432F14B8F1BC
:101D7000000F1ED07542291E1EDDC9F100021CE0B5
:101D8000B8F1010F4FF0000001D0302103E0F24321
:101D900005E02154401CB042FBDB3046002200210C
:101DA00021540B99C1F80880C1E900200FB0BDE8AB
:101DB000F08FBD1B6D1CDEE74A4600DA694206A8BB
:101DC00000F0EEFB06AB93E8070003AB83E80700E7
:101DD00050460A9900F0A3FC8DE80700A0F50050DA
:101DE0001F3800900398002D09DD42F21F014A467A
:101DF000084403A90390684600F002FF08E0A0F53C
:101E000000504A461F3803A90390684600F00CFFB3
:101E10008DE807000004000C03D04FF0FF304108AC
:101E200000E01046B8F1000F03D0002200921546E2
:101E30001EE0751E05D4FFF7CBFE303262556D1ED5
:101E4000F9D5B3460122084302D000227F1C04E0EA
:101E50002078302801D100227F1E002A099786D0E1
:101E60001DE0112D07DAFFF7B3FE303262556D1C0D
:101E700050EA0102F5D1084302D00098C8B10EE043
:101E80000021681E05E0235C625C63542254401EFE
:101E9000491C8142F7DBAB46A81B401E099000207D
:101EA00004F80B000B98099AC0F80880C0E9002BD1
:101EB0007CE711264FF0000859E72DE9F04F8846DE
:101EC0000446D21D22F0070191B0D1E90001CDE90D
:101ED0000A0100F0DFFF02460B98C00F01D02D2051
:101EE00007E02068810701D52B2002E0202101EACC
:101EF000C000032A099001D0072A05DB03464146AA
:101F0000204600F00DFB0BE12078800601D5E0694A
:101F100000E00620B8F1650F814606D0B8F1660FE3
:101F200018D0B8F1670F70D131E00020B9F1110F6E
:101F3000009001DB112301E009F101030AAA01A9C4
:101F40000CA8FFF7E4FEDDE90C70002609F101059D
:101F5000834647E001204B4600904FF000470AAA15
:101F600001A90CA8FFF7D3FEDDE90DB00C995D4681
:101F7000002610B909F101000D18B9EB050003D4D2
:101F8000C0F1FF3609F10105A5EB09002BE0B9F11D
:101F9000010F01DA4FF001090020B9F1110F009093
:101FA000484601DD112300E003460AAA01A90CA856
:101FB000FFF7ADFEDDE90C704D4600268346207824
:101FC00000070AD4AB4500DA5D4601A8012D04DD07
:101FD000411911F8011C302907D04F4502DA17F1D9
:101FE000040F04DA012082460FE06D1EEEE7002F99
:101FF00002DCED1B3E4403E0781CA84200DD7D1CA2
:10200000B81B00F1010A4FF000472078000703D405
:10201000AA4501DB4FF0FF3A0021B7F1004F0DF167
:1020200043088DF8431024D002202B23002F01DA1F
:102030007F422D230A21021EA0F1010000DC5FB1C6
:1020400097FBF1FC97FBF1F201FB1C7C17460CF1AE
:10205000300C08F801CDEEE7A8F1010003702188EB
:10206000090501D5452100E06521A0F1010800F82E
:10207000011C09980FA9A1EB0807FF1D00B1012061
:10208000411901EBEA70A1693844081A401EA061A9
:102090002078C00602D42046FFF7DFFA099828B15D
:1020A000D4E901219047206A401C20622078C006B4
:1020B00022D52046FFF7D1FA1EE0002E04DBB345FF
:1020C00002DD01A8805D00E03020D4E901219047C5
:1020D000206A401C2062761CAAF101005FEA000A17
:1020E0000AD100F019FAC0680168405CD4E9012106
:1020F0009047206A401C2062281EA5F10105DCDC07
:1021000007E0D4E9012118F8010B9047206A401C30
:102110002062381EA7F10107F3DC2046FFF7B3FA6F
:10212000032011B043E600002DE9F04F04460D46B0
:10213000D21D22F0070089B0D0E900924846174628
:10214000394600F0A7FE0246F80F01D02D2307E024
:102150002068810701D52B2302E0202101EAC0037A
:102160008DF820300BB1012000E00020032A8246C8
:1021700001D0072A04DB2946204600F0D1F93DE1D1
:102180002078800601D40D2500E0E569C7F30A56E2
:102190000D2D49DA00214FEA175B08464FF0000089
:1021A000002F00F4400007DA00EB80004FF44001FC
:1021B00000EBD07001EA60008115012901DD4FF0CC
:1021C000FF3100224FEA850CBCF1180F06D31346ED
:1021D000ACF118004FF08052C24003E04FF480137E
:1021E00023FA0CF30CF10C0CBCF1200F04D3ACF16E
:1021F000200C09FA0CF001E007FA0CF000294FF06E
:10220000004801DD18B90FE00ED140450CD319EBA1
:1022100002095F4121B9404502D19F4329EA0209E1
:10222000BBEB175F00D0761C2088000502D57B48E9
:10223000784402E079487844193808AA302302F833
:102240000A30037C0AF10101002E0AF1020A5354FC
:102250006A4602DC4FF0300101E04FF031014FF0EF
:1022600001088DF8001002D0A6F2FF3603E059EA0B
:10227000470100D06A4E002D02DC2178090704D501
:102280004FF002082E218DF80110C44600210BE00A
:10229000C7F303433F01C35C491C6D1E02F80830BD
:1022A000052908F1010801DA002DF1DC00210CE01C
:1022B00000EB1973491C1B786D1E082902F80830C1
:1022C0004FEA091908F1010801DA002DF0DC217844
:1022D000890602D514E0A8F10108E04505DD02EB0E
:1022E000080111F8011C3029F5D0B8F1000F07DD05
:1022F00002EB080111F8011C2E2901D1A8F10108F7
:10230000002D05DD3E2102F808106D1E08F10108C0
:10231000407C002E02F8080008F1010804DA2D20A4
:10232000764202F8080002E02B2002F808000A2199
:102330004FF47A70864208F101080BDB96FBF0F34C
:10234000303302F8083096FBF0F308F1010800FB87
:10235000136601E0642E0CDB642096FBF0F330334F
:1023600002F8083096FBF0F308F1010800FB136651
:1023700001E00A2E06DB96FBF1F0303002F808008F
:1023800008F1010896FBF1F001FB1060303002F813
:102390000800A16908F1010808EB050202EB0A0038
:1023A000081AA0612078C00602D42046FFF755F92C
:1023B000216A08AE01EB0A00206204E0D4E90121A1
:1023C00016F8010B9047BAF1010AF7D22078C0063F
:1023D00002D52046FFF741F96E4609E016F8010BD9
:1023E0003E280FD0D4E901219047206A401C20628A
:1023F000B8F10108F2D22046FFF745F909B00320F1
:10240000BDE8F08F206A2844206203E0D4E901216E
:10241000302090476D1EEBD3F8E70000600D000000
:1024200002FCFFFF10B5436913B1AFF3008001E078
:10243000FFF74CF9012010BD127800F124010A7059
:1024400000224A700122EDE711684FF0FF32E9E700
:1024500010B5436913B1AFF3008001E0FFF7D6F97F
:10246000012010BD128800F1240182840022C28460
:102470000122EDE711684FF0FF32E9E770B516462B
:102480000C46054600F040F8036893F80101012866
:1024900006D0FF2C0FD8185D68B101202C7070BDDC
:1024A000D3F807013246214603F2071303442846B6
:1024B000BDE8704018474FF0FF3070BD754600F022
:1024C000E3F8AE4605006946534620F0070085460E
:1024D00018B020B5FEF73CF8BDE820404FF00006EC
:1024E0004FF000074FF000084FF0000B21F00701FC
:1024F000AC46ACE8C009ACE8C009ACE8C009ACE83F
:10250000C0098D467047000010B500F005F8001DA9
:1025100010BD00BFED0900000048704744000020D6
:102520002DE9F0411F46044603260168072A01F4FD
:10253000006004DB08B116A505E016A503E008B1AC
:1025400015A500E015A521F010002060A069C01EAF
:10255000A0610FB1401EA0612046FFF77EF84FB189
:10256000D4E9012138469047206A401C2062C01CF3
:10257000206206E0206AFAE7D4E9012115F8010B90
:102580009047761EF8D22046FFF77DF8BDE8F0812F
:102590004E414E006E616E00494E4600696E660007
:1025A0002DE9F047814616468AB0334878440DC875
:1025B0008DE80D0030487844801C03AC0DC884E8D9
:1025C0000D0041F69B300844372190FBF1F290FB5F
:1025D000F1F5A5F1800501FB12041B3C02D5644214
:1025E000012000E00020DFF890A080460027FA4498
:1025F000AAF1BE0A0DE0E00709D03246684607EBB3
:1026000047010AEB810100F00FFB8DE80700641021
:102610007F1C002CEFD1184F7F44AC3F18E0E80737
:1026200014D007EB04100DF1180A90E80E008AE8A8
:102630000E00C068F04201D198190890324606A9F0
:1026400003A800F0F1FA03AB83E807006D10641CE7
:10265000002DE4D132466946B8F1000F03A802D03C
:1026600000F0CEFA01E000F0DFFAC9E90001C9F894
:1026700008200AB0BDE8F087740A00000446AFF3F2
:1026800000802046FDF71FFE004870472400002010
:102690004FF0013C50F8042B51F8043B9A4221D1F1
:1026A000A2EB0C03934313EACC1317D150F8042B7D
:1026B00051F8043B9A4215D1A2EB0C03934313EA61
:1026C000CC130BD150F8042B51F8043B9A4209D19A
:1026D000A2EB0C03934313EACC13DBD04FF00000C2
:1026E000704700BFD01A01BAB1FA81F101F01801A8
:1026F00022FA01F0CB40C1F12001DBB2C0B2C01A16
:102700002CFA01F3D11A914311EAC311E6D17047B3
:1027100001491820ABBEFEE72600020070475FEAC1
:10272000400C08BF91F0000F4FEA8C234FEAC12202
:1027300043EA51514FEA1C5018BF00F5F0404FEAF0
:10274000300018BF41F000415FEA6C5C00F0298066
:10275000BCF1FF3F08BF40F080407047130C06BF3C
:1027600012044FF0100C4FF0000C130E04BF1202B5
:102770000CF1080C130F04BF12010CF1040C930FA1
:1027800004BF92000CF1020CD30F04BF52000CF1F5
:10279000010C11464FF00002A0F11F00A0EB0C004D
:1027A000704711F0004F08BF704731F000413FF40F
:1027B000D5AF0B0C06BF09044FF0100C4FF0000C06
:1027C0000B0E04BF09020CF1080C0B0F04BF09012A
:1027D0000CF1040C8B0F04BF89000CF1020CCB0F21
:1027E00004BF49000CF1010CCCF12003A0EB0C005C
:1027F00022FA03F302FA0CF241EA030100F10100AC
:10280000704720F07F4C80EA030023F07F47ACEB59
:10281000070303F57C5300F0004003F1FF032DE9AB
:1028200080494FEA154B09B44FEA144325EA0B4E91
:1028300024EA03480FF2042606EB132749083E78E2
:102840005FEA320203FB0667C7F5000707FB06F6DF
:102850004FEA54374FEAD64606F1020607FB066CEC
:10286000CCF1005C4FEA1C472CEA074C07FB06F44E
:102870000CFB06F504EB15464FEA961634BF002014
:102880004FF000404FEAD13706FB07FC4FEA1C4CE3
:102890000CFB0BF7D21B03FB0CF761EB07010CFBE6
:1028A0000EF7B0EB074072EB17420CFB08F734BF92
:1028B000A2EB0742B2EB074261EB17414FEA0C442F
:1028C0004FEA910706FB07FC4FEA1C4C0CFB0BF789
:1028D000B0EBC74072EB573203FB0CF734BFA2EBEF
:1028E000C742B2EBC74261EB57310CFB0EF7B0EBBE
:1028F000C70072EB57720CFB08F734BFA2EBC7029C
:10290000B2EBC70261EB5771039F4FEA816141EA65
:10291000921104EBCC044FEAD1374FEA826206FBF6
:1029200007FC42EA90124FEA80604FEA1C4C0CFB15
:102930000BF7D21B03FB0CF761EB07010CFB0EF747
:10294000B0EB074072EB17420CFB08F734BFA2EB69
:102950000742B2EB074261EB17414FEA8C554FEA51
:10296000910704EB9C2406FB07FC4FEA1C4C0CFB74
:102970000BF7B0EBC74072EB573203FB0CF734BFD9
:10298000A2EBC742B2EBC74261EB57310CFB0EF72B
:10299000B0EBC70072EB57720CFB08F734BFA2EB29
:1029A000C702B2EBC70261EB577115EB4C254FEA3A
:1029B000816141EA92114FEA82624FEAD13742EADD
:1029C000901206FB07FC44F100044FEA80604FEAD6
:1029D0001C4C0CFB0BF7D21B03FB0CF761EB070144
:1029E0000CFB0EF7B0EB074072EB17420CFB08F73D
:1029F00034BFA2EB0742B2EB074261EB174115EB84
:102A00001C154FEA813141EA92414FEA823242EA93
:102A100090424FEA80304FEA0C7644F1000448EAD5
:102A200003434EEA0B484FF0000EB2EB080C71EB7B
:102A3000030724BF624639464EEB0E0E4FF0000BE3
:102A40000018524149414BEB0B0BB2EB080C71EBF8
:102A500003077BF1000B24BF624639464EEB0E0E96
:102A60004FF0000B0018524149414BEB0B0BB2EBFE
:102A7000080C71EB03077BF1000B24BF624639465B
:102A80004EEB0E0E51EA020718BF46F0010616EB98
:102A90000E7655F1000254F1000103D5BDE889011D
:102AA000BDE80088BDE88901BDE80048B61952417B
:102AB00041EB0101A3F10103704780807F7E7D7CA3
:102AC0007B7A7978777676757473727171706F6EC0
:102AD0006E6D6C6C6B6A6A6968686766666564646B
:102AE000636362616160605F5F5E5E5D5D5C5C5BF5
:102AF0005B5A5A5959585857575656555555545464
:102B0000535352525251515050504F4F4F4E4E4DC1
:102B10004D4D4C4C4C4B4B4B4A4A4A49494948480D
:102B2000484747474746464645454544444444434D
:102B300043434342424242414141002B26D4770065
:102B400021D01CB54FEA370703B44FF010004FF007
:102B500010014FF000000FBCBDE810400BF1010B5D
:102B6000BBF1010F08BF5FEA170722BF12F1010294
:102B700011F101014FF0004143F1000300F000406A
:102B800043EA00007047F9D35708DAE746EA0646F9
:102B900013F1400F4FEA16461FDD13F1200FDFBF80
:102BA00016430A46002120335B42C8D0C3F12007F8
:102BB00046EA064602FA07F74FEA164646EA0706CD
:102BC000C3F1200722FA03F201FA07F721FA03F111
:102BD0004FF0000342EA0702B1E746EA020646EA7E
:102BE00006464FEA164646EA0106BCBF46EA0646D6
:102BF000360C4FF000034FF000024FF000019EE74B
:102C00002DE9C048934630B491E8380007C831EA4E
:102C1000400C48BF34EA430C03D5FFF7F2FDFFF741
:102C20008CFFF0BCBDE800882DE9C048934630B465
:102C300091E8380007C810F0804F08BF13F0804FAC
:102C400003D100F005F8FFF778FFF0BCBDE800887D
:102C500020F07F4780EA030023F07F4C07EB0C0352
:102C6000A3F57C5300F00040A3F1FE0392F0000FA7
:102C700000F0B38095F0000F00F077802DE9014956
:102C80004FEA11404FEA144621EA004800FB06FCD7
:102C900024EA064708FB06F607FB08F800FB07F7DF
:102CA00018EB06484CEB164C4FEA124B18EB074852
:102CB0004FEA15464CEB174022EA0B4E0BFB06FC85
:102CC00025EA06470EFB06F607FB0EFE0BFB07F791
:102CD0001EEB064E4CEB164C4FF000061EEB074E5B
:102CE0004CEB174B18EB0B0840F1000018EB0E0BE8
:102CF00058EB000840F100008F1A4FF000013CBF74
:102D0000C943661B14BFB5EB040C00213CBFC9438B
:102D1000F61B4FEA17444EEA8E0E27EA04454FEAA7
:102D20001C4704FB07622CEA074C05FB07F70CFB6A
:102D300005F604FB0CFC16EB074642EB174216EBBC
:102D40000C4642EB1C421BEB060658EB02024141CB
:102D500046EA9E0601D5BDE80189B619524141EB0C
:102D60000101A3F10103BDE801894FEA14454FEACF
:102D7000114724EA054621EA074C05FB07F406FB48
:102D800007F70CFB06F105FB0CFC11EB074144EBCC
:102D900017444FEA124711EB0C4144EB1C4422EA62
:102DA000074C05FB07F206FB07F70CFB06F605FBD5
:102DB0000CFC16EB074642EB174216EB0C4642EBB7
:102DC0001C456A1854F1000148BF7047B6195241BA
:102DD00041EB0101A3F10103704795F0000F37D0DB
:102DE0004FEA11424FEA144721EA024624EA074C0F
:102DF00002FB07F106FB07F70CFB06F402FB0CFCD9
:102E000014EB074441EB17414FEA154714EB0C4410
:102E100041EB1C4125EA074C02FB07F506FB07F7CF
:102E20000CFB06F602FB0CFC16EB074645EB1745C0
:102E300016EB0C4645EB1C42121951F1000148BF3C
:102E40007047B619524141EB0101A3F101037047EC
:102E50004FEA14454FEA114724EA054621EA074C98
:102E600005FB07F106FB07F70CFB06F24FF0000627
:102E700005FB0CFC12EB074241EB174112EB0C4235
:102E800051EB1C4148BF7047921841EB0101A3F17F
:102E90000103704703B401984100009850EAC12033
:102EA00018BF04204A0D18BF40F0010040F2FF7225
:102EB000B2EB515F08BF40F00200012808BF0520B7
:102EC00002B0704730380A2801D201207047002034
:102ED0007047000010B500290AD00878002807D0F4
:102EE00005487844FFF7D4FB002801D0002010BD2E
:102EF0000248784410BD00007A0100007201000011
:102F000010B500290AD00878002807D00548784471
:102F1000FFF7BEFB002801D0002010BD0248784416
:102F200010BD00006A010000620100004FF0407017
:102F3000E1EE100A7047FEF7C0BFFFF7F5B80000DA
:102F400000000000000000003031323334353637E5
:102F500038394142434445464030580030313233DD
:102F600034353637383961626364656640307800DD
:102F70000400000800000000000000020001000042
:102F80001030313233343536373839616263646535
:102F90006678700030313233343536373839414253
:102FA000434445465850000002400000000000A085
:102FB0000000000005400000000000C80000000004
:102FC0000C4000000000409C000000001940000080
:102FD0000020BCBE0000000034400000BFC91B8EB2
:102FE00000000004B5400000504BCFD06607E2CF90
:102FF000010000006C4100003E8251AADFEEA734C0
:1030000001000000D9420000DCB5A0E23A301F9771
:10301000FFFFFFFFB4450000FD25A0C8E9A3C14F95
:10302000FFFFFFFFFF3F00000000008000000000E6
:10303000FF3F000000000080000000008831000811
:103040000000002024000000C4010008AC3100088A
:103050002400002064060000E00100081C000000BD
:1030600043000000F8FFFFFF0C0000000E0000000E
:103070000F0000002E0000001001000043000000BF
:10308000F8FFFFFF00404040404040404040414189
:10309000414141404040404040404040404040402D
:1030A00040404040400502020202020202020202C7
:1030B00002020202022020202020202020202002C4
:1030C0000202020202029090909090901010101054
:1030D00010101010101010101010101010101010F0
:1030E0000202020202028888888888880808080884
:1030F0000808080808080808080808080808080850
:103100000202020240000000000000000000000077
:1031100000000000000000000000000000000000AF
:10312000000000000000000000000000000000009F
:10313000000000000000000000000000000000008F
:10314000000000000000000000000000000000007F
:10315000000000000000000000000000000000006F
:10316000000000000000000000000000000000005F
:10317000000000000000000000000000000000004F
:103180000000000000000000007A030A00000000B8
:103190000000000001020304060708090000000007
:0C31A000010203040102030406070809F1
:040000050800018965
:00000001FF
